{
  "address": "0x9fE46736679d2D9a65F0992F2272dE9f3c7fa6e0",
  "abi": [
    {
      "inputs": [
        {
          "internalType": "contract IEntryPoint",
          "name": "_entryPoint",
          "type": "address"
        }
      ],
      "stateMutability": "nonpayable",
      "type": "constructor"
    },
    {
      "anonymous": false,
      "inputs": [
        {
          "indexed": true,
          "internalType": "address",
          "name": "previousOwner",
          "type": "address"
        },
        {
          "indexed": true,
          "internalType": "address",
          "name": "newOwner",
          "type": "address"
        }
      ],
      "name": "OwnershipTransferred",
      "type": "event"
    },
    {
      "inputs": [
        {
          "internalType": "uint32",
          "name": "unstakeDelaySec",
          "type": "uint32"
        }
      ],
      "name": "addStake",
      "outputs": [],
      "stateMutability": "payable",
      "type": "function"
    },
    {
      "inputs": [
        {
          "internalType": "address",
          "name": "owner",
          "type": "address"
        },
        {
          "internalType": "uint256",
          "name": "salt",
          "type": "uint256"
        }
      ],
      "name": "createAccount",
      "outputs": [
        {
          "internalType": "contract AyAyWallet",
          "name": "ret",
          "type": "address"
        }
      ],
      "stateMutability": "nonpayable",
      "type": "function"
    },
    {
      "inputs": [],
      "name": "entryPoint",
      "outputs": [
        {
          "internalType": "contract IEntryPoint",
          "name": "",
          "type": "address"
        }
      ],
      "stateMutability": "view",
      "type": "function"
    },
    {
      "inputs": [
        {
          "internalType": "address",
          "name": "owner",
          "type": "address"
        },
        {
          "internalType": "uint256",
          "name": "salt",
          "type": "uint256"
        }
      ],
      "name": "getAddress",
      "outputs": [
        {
          "internalType": "address",
          "name": "",
          "type": "address"
        }
      ],
      "stateMutability": "view",
      "type": "function"
    },
    {
      "inputs": [],
      "name": "owner",
      "outputs": [
        {
          "internalType": "address",
          "name": "",
          "type": "address"
        }
      ],
      "stateMutability": "view",
      "type": "function"
    },
    {
      "inputs": [],
      "name": "renounceOwnership",
      "outputs": [],
      "stateMutability": "nonpayable",
      "type": "function"
    },
    {
      "inputs": [
        {
          "internalType": "address",
          "name": "newOwner",
          "type": "address"
        }
      ],
      "name": "transferOwnership",
      "outputs": [],
      "stateMutability": "nonpayable",
      "type": "function"
    },
    {
      "inputs": [],
      "name": "unlockStake",
      "outputs": [],
      "stateMutability": "nonpayable",
      "type": "function"
    },
    {
      "inputs": [
        {
          "internalType": "address payable",
          "name": "withdrawAddress",
          "type": "address"
        }
      ],
      "name": "withdrawStake",
      "outputs": [],
      "stateMutability": "nonpayable",
      "type": "function"
    },
    {
      "inputs": [
        {
          "internalType": "address payable",
          "name": "withdrawAddress",
          "type": "address"
        },
        {
          "internalType": "uint256",
          "name": "amount",
          "type": "uint256"
        }
      ],
      "name": "withdrawTo",
      "outputs": [],
      "stateMutability": "nonpayable",
      "type": "function"
    }
  ],
  "transactionHash": "0x66bdf6d51a241be34bc475d01472b6affccd8eea39e5a62b9f4e76eab47baf57",
  "args": [
    "0x0576a174D229E3cFA37253523E645A78A0C91B57"
  ],
  "numDeployments": 1,
  "solcInputHash": "78f58708892b883d758936560addd811",
  "bytecode": "0x60a060405234801561001057600080fd5b506040516118fa3803806118fa83398101604081905261002f91610099565b61003833610049565b6001600160a01b03166080526100c9565b600080546001600160a01b038381166001600160a01b0319831681178455604051919092169283917f8be0079c531659141344cd1fd0a4f28419497f9722a3daafe3b4186f6b6457e09190a35050565b6000602082840312156100ab57600080fd5b81516001600160a01b03811681146100c257600080fd5b9392505050565b6080516117ec61010e6000396000818161018c0152818161023f015281816102ef0152818161035801528181610429015281816104a7015261055a01526117ec6000f3fe6080604052600436106100b15760003560e01c80638da5cb5b11610069578063bb9fe6bf1161004e578063bb9fe6bf146101ae578063c23a5cea146101c3578063f2fde38b146101e357600080fd5b80638da5cb5b1461015c578063b0d691fe1461017a57600080fd5b80635fbfb9cf1161009a5780635fbfb9cf146100eb578063715018a6146101275780638cb84e181461013c57600080fd5b80630396cb60146100b6578063205c2878146100cb575b600080fd5b6100c96100c4366004610783565b610203565b005b3480156100d757600080fd5b506100c96100e63660046107be565b6102a8565b3480156100f757600080fd5b5061010b6101063660046107be565b610333565b6040516001600160a01b03909116815260200160405180910390f35b34801561013357600080fd5b506100c96103c7565b34801561014857600080fd5b5061010b6101573660046107be565b6103db565b34801561016857600080fd5b506000546001600160a01b031661010b565b34801561018657600080fd5b5061010b7f000000000000000000000000000000000000000000000000000000000000000081565b3480156101ba57600080fd5b506100c961049d565b3480156101cf57600080fd5b506100c96101de3660046107ea565b61051a565b3480156101ef57600080fd5b506100c96101fe3660046107ea565b6105b9565b61020b610668565b6040517f0396cb6000000000000000000000000000000000000000000000000000000000815263ffffffff821660048201527f00000000000000000000000000000000000000000000000000000000000000006001600160a01b031690630396cb609034906024016000604051808303818588803b15801561028c57600080fd5b505af11580156102a0573d6000803e3d6000fd5b505050505050565b6102b0610668565b6040517f205c28780000000000000000000000000000000000000000000000000000000081526001600160a01b038381166004830152602482018390527f0000000000000000000000000000000000000000000000000000000000000000169063205c287890604401600060405180830381600087803b15801561028c57600080fd5b60008061034084846103db565b9050803b8015610352575090506103c1565b8360001b7f00000000000000000000000000000000000000000000000000000000000000008660405161038490610776565b6001600160a01b039283168152911660208201526040018190604051809103906000f59050801580156103bb573d6000803e3d6000fd5b50925050505b92915050565b6103cf610668565b6103d960006106dc565b565b60006104968260001b604051806020016103f490610776565b7fffffffffffffffffffffffffffffffffffffffffffffffffffffffffffffffe082820381018352601f9091011660408181527f00000000000000000000000000000000000000000000000000000000000000006001600160a01b0390811660208401528816818301528051808303820181526060830190915261047b9291608001610837565b60405160208183030381529060405280519060200120610744565b9392505050565b6104a5610668565b7f00000000000000000000000000000000000000000000000000000000000000006001600160a01b031663bb9fe6bf6040518163ffffffff1660e01b8152600401600060405180830381600087803b15801561050057600080fd5b505af1158015610514573d6000803e3d6000fd5b50505050565b610522610668565b6040517fc23a5cea0000000000000000000000000000000000000000000000000000000081526001600160a01b0382811660048301527f0000000000000000000000000000000000000000000000000000000000000000169063c23a5cea90602401600060405180830381600087803b15801561059e57600080fd5b505af11580156105b2573d6000803e3d6000fd5b5050505050565b6105c1610668565b6001600160a01b03811661065c576040517f08c379a000000000000000000000000000000000000000000000000000000000815260206004820152602660248201527f4f776e61626c653a206e6577206f776e657220697320746865207a65726f206160448201527f646472657373000000000000000000000000000000000000000000000000000060648201526084015b60405180910390fd5b610665816106dc565b50565b6000546001600160a01b031633146103d9576040517f08c379a000000000000000000000000000000000000000000000000000000000815260206004820181905260248201527f4f776e61626c653a2063616c6c6572206973206e6f7420746865206f776e65726044820152606401610653565b600080546001600160a01b038381167fffffffffffffffffffffffff0000000000000000000000000000000000000000831681178455604051919092169283917f8be0079c531659141344cd1fd0a4f28419497f9722a3daafe3b4186f6b6457e09190a35050565b60006104968383306000604051836040820152846020820152828152600b8101905060ff815360559020949350505050565b610f628061085583390190565b60006020828403121561079557600080fd5b813563ffffffff8116811461049657600080fd5b6001600160a01b038116811461066557600080fd5b600080604083850312156107d157600080fd5b82356107dc816107a9565b946020939093013593505050565b6000602082840312156107fc57600080fd5b8135610496816107a9565b6000815160005b81811015610828576020818501810151868301520161080e565b50600093019283525090919050565b600061084c6108468386610807565b84610807565b94935050505056fe60c060405234801561001057600080fd5b50604051610f62380380610f6283398101604081905261002f91610088565b6001600160a01b0391821660805260008054919092166c01000000000000000000000000026001600160601b0390911617905564e8d4a5100060a0526100c2565b6001600160a01b038116811461008557600080fd5b50565b6000806040838503121561009b57600080fd5b82516100a681610070565b60208401519092506100b781610070565b809150509250929050565b60805160a051610e516101116000396000818161015d015261041b0152600081816101b101528181610251015281816102f201528181610524015281816105d601526108c50152610e516000f3fe60806040526004361061009a5760003560e01c8063af8214ef11610069578063b0d691fe1161004e578063b0d691fe146101a2578063b3d76188146101d5578063c399ec88146101f557600080fd5b8063af8214ef1461014b578063affed0e01461017f57600080fd5b80633a871cdd146100a65780634a58db19146100d95780634d44560d146100e35780638da5cb5b1461010357600080fd5b366100a157005b600080fd5b3480156100b257600080fd5b506100c66100c1366004610c07565b61020a565b6040519081526020015b60405180910390f35b6100e161024f565b005b3480156100ef57600080fd5b506100e16100fe366004610c70565b6102e8565b34801561010f57600080fd5b50600054610133906c0100000000000000000000000090046001600160a01b031681565b6040516001600160a01b0390911681526020016100d0565b34801561015757600080fd5b506100c67f000000000000000000000000000000000000000000000000000000000000000081565b34801561018b57600080fd5b506000546bffffffffffffffffffffffff166100c6565b3480156101ae57600080fd5b507f0000000000000000000000000000000000000000000000000000000000000000610133565b3480156101e157600080fd5b506100e16101f0366004610c9c565b610392565b34801561020157600080fd5b506100c6610520565b60006102146105cb565b61021e8484610645565b905061022d6040850185610cdd565b905060000361023f5761023f8461072a565b610248826107db565b9392505050565b7f00000000000000000000000000000000000000000000000000000000000000006040517fb760faf90000000000000000000000000000000000000000000000000000000081523060048201526001600160a01b03919091169063b760faf99034906024016000604051808303818588803b1580156102cd57600080fd5b505af11580156102e1573d6000803e3d6000fd5b5050505050565b6102f0610846565b7f00000000000000000000000000000000000000000000000000000000000000006040517f205c28780000000000000000000000000000000000000000000000000000000081526001600160a01b03848116600483015260248201849052919091169063205c287890604401600060405180830381600087803b15801561037657600080fd5b505af115801561038a573d6000803e3d6000fd5b505050505050565b61039a6108ba565b826001600160a01b0316631c1cb3236040518163ffffffff1660e01b8152600401602060405180830381865afa1580156103d8573d6000803e3d6000fd5b505050506040513d601f19601f820116820180604052508101906103fc9190610d42565b6001600160a01b0316826001600160a01b03161461041957600080fd5b7f000000000000000000000000000000000000000000000000000000000000000081111561048e5760405162461bcd60e51b815260206004820152601560248201527f5061796d656e742065786365656473206c696d6974000000000000000000000060448201526064015b60405180910390fd5b6040517fa9059cbb0000000000000000000000000000000000000000000000000000000081526001600160a01b0384811660048301526024820183905283169063a9059cbb906044016020604051808303816000875af11580156104f6573d6000803e3d6000fd5b505050506040513d601f19601f8201168201806040525081019061051a9190610d5f565b50505050565b60007f00000000000000000000000000000000000000000000000000000000000000006040517f70a082310000000000000000000000000000000000000000000000000000000081523060048201526001600160a01b0391909116906370a0823190602401602060405180830381865afa1580156105a2573d6000803e3d6000fd5b505050506040513d601f19601f820116820180604052508101906105c69190610d81565b905090565b336001600160a01b037f000000000000000000000000000000000000000000000000000000000000000016146106435760405162461bcd60e51b815260206004820152601c60248201527f6163636f756e743a206e6f742066726f6d20456e747279506f696e74000000006044820152606401610485565b565b60008061069f836040517f19457468657265756d205369676e6564204d6573736167653a0a3332000000006020820152603c8101829052600090605c01604051602081830303815290604052805190602001209050919050565b90506106ef6106b2610140860186610cdd565b8080601f01602080910402602001604051908101604052809392919081815260200183838082843760009201919091525085939250506109579050565b6000546c0100000000000000000000000090046001600160a01b0390811691161461071e576001915050610724565b60009150505b92915050565b600080546020830135916bffffffffffffffffffffffff909116908061074f83610d9a565b91906101000a8154816bffffffffffffffffffffffff02191690836bffffffffffffffffffffffff1602179055506bffffffffffffffffffffffff16146107d85760405162461bcd60e51b815260206004820152601660248201527f6163636f756e743a20696e76616c6964206e6f6e6365000000000000000000006044820152606401610485565b50565b80156107d85760405160009033907fffffffffffffffffffffffffffffffffffffffffffffffffffffffffffffffff90849084818181858888f193505050503d80600081146102e1576040519150601f19603f3d011682016040523d82523d6000602084013e6102e1565b6000546c0100000000000000000000000090046001600160a01b031633148061086e57503330145b6106435760405162461bcd60e51b815260206004820152600a60248201527f6f6e6c79206f776e6572000000000000000000000000000000000000000000006044820152606401610485565b336001600160a01b037f000000000000000000000000000000000000000000000000000000000000000016148061090b57506000546c0100000000000000000000000090046001600160a01b031633145b6106435760405162461bcd60e51b815260206004820181905260248201527f6163636f756e743a206e6f74204f776e6572206f7220456e747279506f696e746044820152606401610485565b6000806000610966858561097b565b91509150610973816109c0565b509392505050565b60008082516041036109b15760208301516040840151606085015160001a6109a587828585610b25565b945094505050506109b9565b506000905060025b9250929050565b60008160048111156109d4576109d4610dec565b036109dc5750565b60018160048111156109f0576109f0610dec565b03610a3d5760405162461bcd60e51b815260206004820152601860248201527f45434453413a20696e76616c6964207369676e617475726500000000000000006044820152606401610485565b6002816004811115610a5157610a51610dec565b03610a9e5760405162461bcd60e51b815260206004820152601f60248201527f45434453413a20696e76616c6964207369676e6174757265206c656e677468006044820152606401610485565b6003816004811115610ab257610ab2610dec565b036107d85760405162461bcd60e51b815260206004820152602260248201527f45434453413a20696e76616c6964207369676e6174757265202773272076616c60448201527f75650000000000000000000000000000000000000000000000000000000000006064820152608401610485565b6000807f7fffffffffffffffffffffffffffffff5d576e7357a4501ddfe92f46681b20a0831115610b5c5750600090506003610bfe565b6040805160008082526020820180845289905260ff881692820192909252606081018690526080810185905260019060a0016020604051602081039080840390855afa158015610bb0573d6000803e3d6000fd5b50506040517fffffffffffffffffffffffffffffffffffffffffffffffffffffffffffffffe001519150506001600160a01b038116610bf757600060019250925050610bfe565b9150600090505b94509492505050565b600080600060608486031215610c1c57600080fd5b833567ffffffffffffffff811115610c3357600080fd5b84016101608187031215610c4657600080fd5b95602085013595506040909401359392505050565b6001600160a01b03811681146107d857600080fd5b60008060408385031215610c8357600080fd5b8235610c8e81610c5b565b946020939093013593505050565b600080600060608486031215610cb157600080fd5b8335610cbc81610c5b565b92506020840135610ccc81610c5b565b929592945050506040919091013590565b60008083357fffffffffffffffffffffffffffffffffffffffffffffffffffffffffffffffe1843603018112610d1257600080fd5b83018035915067ffffffffffffffff821115610d2d57600080fd5b6020019150368190038213156109b957600080fd5b600060208284031215610d5457600080fd5b815161024881610c5b565b600060208284031215610d7157600080fd5b8151801515811461024857600080fd5b600060208284031215610d9357600080fd5b5051919050565b60006bffffffffffffffffffffffff808316818103610de2577f4e487b7100000000000000000000000000000000000000000000000000000000600052601160045260246000fd5b6001019392505050565b7f4e487b7100000000000000000000000000000000000000000000000000000000600052602160045260246000fdfea26469706673582212207d464c6dbbf4b3a18c2381de2166a7d81606f1d6c250bf9c040ed06db6cac87964736f6c63430008120033a26469706673582212203552466c597b0701bf027b52a3a2a6016f8433661c73f89a3f0392cc96fbde6b64736f6c63430008120033",
  "devdoc": {
    "kind": "dev",
    "methods": {
      "owner()": {
        "details": "Returns the address of the current owner."
      },
      "renounceOwnership()": {
        "details": "Leaves the contract without owner. It will not be possible to call `onlyOwner` functions anymore. Can only be called by the current owner. NOTE: Renouncing ownership will leave the contract without an owner, thereby removing any functionality that is only available to the owner."
      },
      "transferOwnership(address)": {
        "details": "Transfers ownership of the contract to a new account (`newOwner`). Can only be called by the current owner."
      },
      "withdrawStake(address)": {
        "params": {
          "withdrawAddress": "the address to send withdrawn value."
        }
      }
    },
    "version": 1
  },
  "userdoc": {
    "kind": "user",
    "methods": {
      "createAccount(address,uint256)": {
        "notice": "create an account, and return its address. returns the address even if the account is already deployed. Note that during UserOperation execution, this method is called only if the account is not deployed. This method returns an existing account address so that entryPoint.getSenderAddress() would work even after account creation"
      },
      "unlockStake()": {
        "notice": "unlock the stake, in order to withdraw it. This can't serve requests once unlocked, until it calls addStake again"
      },
      "withdrawStake(address)": {
        "notice": "withdraw the entire stake. stake must be unlocked first (and then wait for the unstakeDelay to be over)"
      }
    },
    "version": 1
  },
  "storageLayout": {
    "storage": [
      {
        "astId": 1111,
        "contract": "contracts/AyAyFactory.sol:AyAyFactory",
        "label": "_owner",
        "offset": 0,
        "slot": "0",
        "type": "t_address"
      }
    ],
    "types": {
      "t_address": {
        "encoding": "inplace",
        "label": "address",
        "numberOfBytes": "20"
      }
    }
  }
}