{
  "address": "0x71C95911E9a5D330f4D621842EC243EE1343292e",
  "abi": [
    {
      "inputs": [
        {
          "internalType": "contract IEntryPoint",
          "name": "entryPoint_",
          "type": "address"
        },
        {
          "internalType": "contract IAyAyReceiver",
          "name": "receiver_",
          "type": "address"
        },
        {
          "internalType": "address",
          "name": "owner_",
          "type": "address"
        }
      ],
      "stateMutability": "nonpayable",
      "type": "constructor"
    },
    {
      "anonymous": false,
      "inputs": [
        {
          "indexed": true,
          "internalType": "address",
          "name": "previousOwner",
          "type": "address"
        },
        {
          "indexed": true,
          "internalType": "address",
          "name": "newOwner",
          "type": "address"
        }
      ],
      "name": "OwnershipTransferred",
      "type": "event"
    },
    {
      "inputs": [],
      "name": "MINIMAL_AMOUNT",
      "outputs": [
        {
          "internalType": "uint256",
          "name": "",
          "type": "uint256"
        }
      ],
      "stateMutability": "view",
      "type": "function"
    },
    {
      "inputs": [],
      "name": "RECEIVER",
      "outputs": [
        {
          "internalType": "contract IAyAyReceiver",
          "name": "",
          "type": "address"
        }
      ],
      "stateMutability": "view",
      "type": "function"
    },
    {
      "inputs": [
        {
          "internalType": "uint32",
          "name": "unstakeDelaySec",
          "type": "uint32"
        }
      ],
      "name": "addStake",
      "outputs": [],
      "stateMutability": "payable",
      "type": "function"
    },
    {
      "inputs": [],
      "name": "deposit",
      "outputs": [],
      "stateMutability": "payable",
      "type": "function"
    },
    {
      "inputs": [],
      "name": "entryPoint",
      "outputs": [
        {
          "internalType": "contract IEntryPoint",
          "name": "",
          "type": "address"
        }
      ],
      "stateMutability": "view",
      "type": "function"
    },
    {
      "inputs": [],
      "name": "getDeposit",
      "outputs": [
        {
          "internalType": "uint256",
          "name": "",
          "type": "uint256"
        }
      ],
      "stateMutability": "view",
      "type": "function"
    },
    {
      "inputs": [],
      "name": "owner",
      "outputs": [
        {
          "internalType": "address",
          "name": "",
          "type": "address"
        }
      ],
      "stateMutability": "view",
      "type": "function"
    },
    {
      "inputs": [
        {
          "internalType": "enum IPaymaster.PostOpMode",
          "name": "mode",
          "type": "uint8"
        },
        {
          "internalType": "bytes",
          "name": "context",
          "type": "bytes"
        },
        {
          "internalType": "uint256",
          "name": "actualGasCost",
          "type": "uint256"
        }
      ],
      "name": "postOp",
      "outputs": [],
      "stateMutability": "nonpayable",
      "type": "function"
    },
    {
      "inputs": [],
      "name": "renounceOwnership",
      "outputs": [],
      "stateMutability": "nonpayable",
      "type": "function"
    },
    {
      "inputs": [
        {
          "internalType": "address",
          "name": "newOwner",
          "type": "address"
        }
      ],
      "name": "transferOwnership",
      "outputs": [],
      "stateMutability": "nonpayable",
      "type": "function"
    },
    {
      "inputs": [],
      "name": "unlockStake",
      "outputs": [],
      "stateMutability": "nonpayable",
      "type": "function"
    },
    {
      "inputs": [
        {
          "components": [
            {
              "internalType": "address",
              "name": "sender",
              "type": "address"
            },
            {
              "internalType": "uint256",
              "name": "nonce",
              "type": "uint256"
            },
            {
              "internalType": "bytes",
              "name": "initCode",
              "type": "bytes"
            },
            {
              "internalType": "bytes",
              "name": "callData",
              "type": "bytes"
            },
            {
              "internalType": "uint256",
              "name": "callGasLimit",
              "type": "uint256"
            },
            {
              "internalType": "uint256",
              "name": "verificationGasLimit",
              "type": "uint256"
            },
            {
              "internalType": "uint256",
              "name": "preVerificationGas",
              "type": "uint256"
            },
            {
              "internalType": "uint256",
              "name": "maxFeePerGas",
              "type": "uint256"
            },
            {
              "internalType": "uint256",
              "name": "maxPriorityFeePerGas",
              "type": "uint256"
            },
            {
              "internalType": "bytes",
              "name": "paymasterAndData",
              "type": "bytes"
            },
            {
              "internalType": "bytes",
              "name": "signature",
              "type": "bytes"
            }
          ],
          "internalType": "struct UserOperation",
          "name": "userOp",
          "type": "tuple"
        },
        {
          "internalType": "bytes32",
          "name": "userOpHash",
          "type": "bytes32"
        },
        {
          "internalType": "uint256",
          "name": "maxCost",
          "type": "uint256"
        }
      ],
      "name": "validatePaymasterUserOp",
      "outputs": [
        {
          "internalType": "bytes",
          "name": "context",
          "type": "bytes"
        },
        {
          "internalType": "uint256",
          "name": "validationData",
          "type": "uint256"
        }
      ],
      "stateMutability": "nonpayable",
      "type": "function"
    },
    {
      "inputs": [
        {
          "internalType": "address payable",
          "name": "withdrawAddress",
          "type": "address"
        }
      ],
      "name": "withdrawStake",
      "outputs": [],
      "stateMutability": "nonpayable",
      "type": "function"
    },
    {
      "inputs": [
        {
          "internalType": "address payable",
          "name": "withdrawAddress",
          "type": "address"
        },
        {
          "internalType": "uint256",
          "name": "amount",
          "type": "uint256"
        }
      ],
      "name": "withdrawTo",
      "outputs": [],
      "stateMutability": "nonpayable",
      "type": "function"
    }
  ],
  "transactionHash": "0x40af46889dfde9ac76def66f553954f00c2b0e2bb63a67c1fd6f726dcbe350d7",
  "args": [
    "0x0576a174D229E3cFA37253523E645A78A0C91B57",
    "0x8464135c8F25Da09e49BC8782676a84730C318bC",
    "0x70997970C51812dc3A010C7d01b50e0d17dc79C8"
  ],
  "numDeployments": 1,
  "solcInputHash": "6b45f30f2aa8639d981ca0e9cd3c0c35",
  "bytecode": "0x60e060405234801561001057600080fd5b506040516200107f3803806200107f833981016040819052610031916100cf565b8261003b33610067565b6001600160a01b03908116608052821660a0526302faf08060c05261005f81610067565b50505061011c565b600080546001600160a01b038381166001600160a01b0319831681178455604051919092169283917f8be0079c531659141344cd1fd0a4f28419497f9722a3daafe3b4186f6b6457e09190a35050565b6001600160a01b03811681146100cc57600080fd5b50565b6000806000606084860312156100e457600080fd5b83516100ef816100b7565b6020850151909350610100816100b7565b6040850151909250610111816100b7565b809150509250925092565b60805160a05160c051610eed62000192600039600081816101090152610af30152600081816101d7015281816109900152610a1101526000818161020b01528181610309015281816103b901528181610435015281816104e2015281816105720152818161061801526107ea0152610eed6000f3fe6080604052600436106100dd5760003560e01c8063b0d691fe1161007f578063c399ec8811610059578063c399ec8814610262578063d0e30db014610277578063f2fde38b1461027f578063f465c77e1461029f57600080fd5b8063b0d691fe146101f9578063bb9fe6bf1461022d578063c23a5cea1461024257600080fd5b8063715018a6116100bb578063715018a61461015e5780638da5cb5b14610173578063a9a23409146101a5578063ad7430cc146101c557600080fd5b80630396cb60146100e257806303fd9b48146100f7578063205c28781461013e575b600080fd5b6100f56100f0366004610b81565b6102cd565b005b34801561010357600080fd5b5061012b7f000000000000000000000000000000000000000000000000000000000000000081565b6040519081526020015b60405180910390f35b34801561014a57600080fd5b506100f5610159366004610bc3565b610372565b34801561016a57600080fd5b506100f56103fd565b34801561017f57600080fd5b506000546001600160a01b03165b6040516001600160a01b039091168152602001610135565b3480156101b157600080fd5b506100f56101c0366004610bef565b610411565b3480156101d157600080fd5b5061018d7f000000000000000000000000000000000000000000000000000000000000000081565b34801561020557600080fd5b5061018d7f000000000000000000000000000000000000000000000000000000000000000081565b34801561023957600080fd5b506100f561042b565b34801561024e57600080fd5b506100f561025d366004610c7e565b6104a2565b34801561026e57600080fd5b5061012b610541565b6100f56105ea565b34801561028b57600080fd5b506100f561029a366004610c7e565b610665565b3480156102ab57600080fd5b506102bf6102ba366004610c9b565b6106fa565b604051610135929190610cef565b6102d561071d565b6040517f0396cb6000000000000000000000000000000000000000000000000000000000815263ffffffff821660048201527f00000000000000000000000000000000000000000000000000000000000000006001600160a01b031690630396cb609034906024016000604051808303818588803b15801561035657600080fd5b505af115801561036a573d6000803e3d6000fd5b505050505050565b61037a61071d565b6040517f205c28780000000000000000000000000000000000000000000000000000000081526001600160a01b038381166004830152602482018390527f0000000000000000000000000000000000000000000000000000000000000000169063205c287890604401600060405180830381600087803b15801561035657600080fd5b61040561071d565b61040f6000610777565b565b6104196107df565b61042584848484610857565b50505050565b61043361071d565b7f00000000000000000000000000000000000000000000000000000000000000006001600160a01b031663bb9fe6bf6040518163ffffffff1660e01b8152600401600060405180830381600087803b15801561048e57600080fd5b505af1158015610425573d6000803e3d6000fd5b6104aa61071d565b6040517fc23a5cea0000000000000000000000000000000000000000000000000000000081526001600160a01b0382811660048301527f0000000000000000000000000000000000000000000000000000000000000000169063c23a5cea90602401600060405180830381600087803b15801561052657600080fd5b505af115801561053a573d6000803e3d6000fd5b5050505050565b6040517f70a082310000000000000000000000000000000000000000000000000000000081523060048201526000907f00000000000000000000000000000000000000000000000000000000000000006001600160a01b0316906370a0823190602401602060405180830381865afa1580156105c1573d6000803e3d6000fd5b505050506040513d601f19601f820116820180604052508101906105e59190610d62565b905090565b6040517fb760faf90000000000000000000000000000000000000000000000000000000081523060048201527f00000000000000000000000000000000000000000000000000000000000000006001600160a01b03169063b760faf99034906024016000604051808303818588803b15801561052657600080fd5b61066d61071d565b6001600160a01b0381166106ee5760405162461bcd60e51b815260206004820152602660248201527f4f776e61626c653a206e6577206f776e657220697320746865207a65726f206160448201527f646472657373000000000000000000000000000000000000000000000000000060648201526084015b60405180910390fd5b6106f781610777565b50565b606060006107066107df565b61071185858561089f565b91509150935093915050565b6000546001600160a01b0316331461040f5760405162461bcd60e51b815260206004820181905260248201527f4f776e61626c653a2063616c6c6572206973206e6f7420746865206f776e657260448201526064016106e5565b600080546001600160a01b038381167fffffffffffffffffffffffff0000000000000000000000000000000000000000831681178455604051919092169283917f8be0079c531659141344cd1fd0a4f28419497f9722a3daafe3b4186f6b6457e09190a35050565b336001600160a01b037f0000000000000000000000000000000000000000000000000000000000000000161461040f5760405162461bcd60e51b815260206004820152601560248201527f53656e646572206e6f7420456e747279506f696e74000000000000000000000060448201526064016106e5565b60405162461bcd60e51b815260206004820152600d60248201527f6d757374206f766572726964650000000000000000000000000000000000000060448201526064016106e5565b60606000806108b086840187610d7b565b6108bf91600491600091610de7565b6108c891610e11565b9050600080806108db60608a018a610d7b565b6108e9916004908290610de7565b8101906108f69190610e59565b919450925090507fffffffff0000000000000000000000000000000000000000000000000000000084167fb3d76188000000000000000000000000000000000000000000000000000000001461098e5760405162461bcd60e51b815260206004820152601460248201527f556e737570706f727465642063616c6c6461746100000000000000000000000060448201526064016106e5565b7f00000000000000000000000000000000000000000000000000000000000000006001600160a01b0316836001600160a01b031614610a0f5760405162461bcd60e51b815260206004820152601260248201527f496e636f7272656374207265636569766572000000000000000000000000000060448201526064016106e5565b7f00000000000000000000000000000000000000000000000000000000000000006001600160a01b0316631c1cb3236040518163ffffffff1660e01b8152600401602060405180830381865afa158015610a6d573d6000803e3d6000fd5b505050506040513d601f19601f82011682018060405250810190610a919190610e9a565b6001600160a01b0316826001600160a01b031614610af15760405162461bcd60e51b815260206004820152600f60248201527f496e636f727265637420746f6b656e000000000000000000000000000000000060448201526064016106e5565b7f0000000000000000000000000000000000000000000000000000000000000000811015610b615760405162461bcd60e51b815260206004820152601060248201527f416d6f756e7420746f6f20736d616c6c0000000000000000000000000000000060448201526064016106e5565b505060408051602081019091526000808252909890975095505050505050565b600060208284031215610b9357600080fd5b813563ffffffff81168114610ba757600080fd5b9392505050565b6001600160a01b03811681146106f757600080fd5b60008060408385031215610bd657600080fd5b8235610be181610bae565b946020939093013593505050565b60008060008060608587031215610c0557600080fd5b843560038110610c1457600080fd5b9350602085013567ffffffffffffffff80821115610c3157600080fd5b818701915087601f830112610c4557600080fd5b813581811115610c5457600080fd5b886020828501011115610c6657600080fd5b95986020929092019750949560400135945092505050565b600060208284031215610c9057600080fd5b8135610ba781610bae565b600080600060608486031215610cb057600080fd5b833567ffffffffffffffff811115610cc757600080fd5b84016101608187031215610cda57600080fd5b95602085013595506040909401359392505050565b604081526000835180604084015260005b81811015610d1d5760208187018101516060868401015201610d00565b5060006060828501015260607fffffffffffffffffffffffffffffffffffffffffffffffffffffffffffffffe0601f8301168401019150508260208301529392505050565b600060208284031215610d7457600080fd5b5051919050565b60008083357fffffffffffffffffffffffffffffffffffffffffffffffffffffffffffffffe1843603018112610db057600080fd5b83018035915067ffffffffffffffff821115610dcb57600080fd5b602001915036819003821315610de057600080fd5b9250929050565b60008085851115610df757600080fd5b83861115610e0457600080fd5b5050820193919092039150565b7fffffffff000000000000000000000000000000000000000000000000000000008135818116916004851015610e515780818660040360031b1b83161692505b505092915050565b600080600060608486031215610e6e57600080fd5b8335610e7981610bae565b92506020840135610e8981610bae565b929592945050506040919091013590565b600060208284031215610eac57600080fd5b8151610ba781610bae56fea264697066735822122065e39309b0783e95c82bf5a969c24f770e2b6bd4b29b915d31931f934b09521e64736f6c63430008120033",
  "devdoc": {
    "kind": "dev",
    "methods": {
      "addStake(uint32)": {
        "params": {
          "unstakeDelaySec": "- the unstake delay for this paymaster. Can only be increased."
        }
      },
      "owner()": {
        "details": "Returns the address of the current owner."
      },
      "postOp(uint8,bytes,uint256)": {
        "params": {
          "actualGasCost": "- actual gas used so far (without this postOp call).",
          "context": "- the context value returned by validatePaymasterUserOp",
          "mode": "enum with the following options:      opSucceeded - user operation succeeded.      opReverted  - user op reverted. still has to pay for gas.      postOpReverted - user op succeeded, but caused postOp (in mode=opSucceeded) to revert.                       Now this is the 2nd call, after user's op was deliberately reverted."
        }
      },
      "renounceOwnership()": {
        "details": "Leaves the contract without owner. It will not be possible to call `onlyOwner` functions anymore. Can only be called by the current owner. NOTE: Renouncing ownership will leave the contract without an owner, thereby removing any functionality that is only available to the owner."
      },
      "transferOwnership(address)": {
        "details": "Transfers ownership of the contract to a new account (`newOwner`). Can only be called by the current owner."
      },
      "validatePaymasterUserOp((address,uint256,bytes,bytes,uint256,uint256,uint256,uint256,uint256,bytes,bytes),bytes32,uint256)": {
        "params": {
          "maxCost": "the maximum cost of this transaction (based on maximum gas and gas price from userOp)",
          "userOp": "the user operation",
          "userOpHash": "hash of the user's request data."
        },
        "returns": {
          "context": "value to send to a postOp      zero length to signify postOp is not required.",
          "validationData": "signature and time-range of this operation, encoded the same as the return value of validateUserOperation      <20-byte> sigAuthorizer - 0 for valid signature, 1 to mark signature failure,         otherwise, an address of an \"authorizer\" contract.      <6-byte> validUntil - last timestamp this operation is valid. 0 for \"indefinite\"      <6-byte> validAfter - first timestamp this operation is valid      Note that the validation code cannot use block.timestamp (or block.number) directly."
        }
      },
      "withdrawStake(address)": {
        "params": {
          "withdrawAddress": "the address to send withdrawn value."
        }
      },
      "withdrawTo(address,uint256)": {
        "params": {
          "amount": "to withdraw",
          "withdrawAddress": "target to send to"
        }
      }
    },
    "version": 1
  },
  "userdoc": {
    "kind": "user",
    "methods": {
      "addStake(uint32)": {
        "notice": "add stake for this paymaster. This method can also carry eth value to add to the current stake."
      },
      "deposit()": {
        "notice": "add a deposit for this paymaster, used for paying for transaction fees"
      },
      "getDeposit()": {
        "notice": "return current paymaster's deposit on the entryPoint."
      },
      "postOp(uint8,bytes,uint256)": {
        "notice": "post-operation handler. Must verify sender is the entryPoint"
      },
      "unlockStake()": {
        "notice": "unlock the stake, in order to withdraw it. The paymaster can't serve requests once unlocked, until it calls addStake again"
      },
      "validatePaymasterUserOp((address,uint256,bytes,bytes,uint256,uint256,uint256,uint256,uint256,bytes,bytes),bytes32,uint256)": {
        "notice": "payment validation: check if paymaster agrees to pay. Must verify sender is the entryPoint. Revert to reject this request. Note that bundlers will reject this method if it changes the state, unless the paymaster is trusted (whitelisted) The paymaster pre-pays using its deposit, and receive back a refund after the postOp method returns."
      },
      "withdrawStake(address)": {
        "notice": "withdraw the entire paymaster's stake. stake must be unlocked first (and then wait for the unstakeDelay to be over)"
      },
      "withdrawTo(address,uint256)": {
        "notice": "withdraw value from the deposit"
      }
    },
    "version": 1
  },
  "storageLayout": {
    "storage": [
      {
        "astId": 957,
        "contract": "contracts/AyAyPaymaster.sol:AyAyPaymaster",
        "label": "_owner",
        "offset": 0,
        "slot": "0",
        "type": "t_address"
      }
    ],
    "types": {
      "t_address": {
        "encoding": "inplace",
        "label": "address",
        "numberOfBytes": "20"
      }
    }
  }
}